:02000000A22933
:06000600000000000800EC
:0E000C00213083120313FD00FD0B0A280800AB
:10001A000F3083120313FC004730FD00FD0B132839
:0A002A00FC0B132800000000080082
:1000340083120317AB1B21280313881123280313EE
:10004400881503172B1B2928031308112B280313C6
:1000540008150317AB1A3128031388103328031328
:10006400881403172B1A3928031308103B28031389
:10007400081483166B184128831208164328831228
:1000840008128816032088120317AB194C2803138F
:1000940088114E280313881503172B1954280313AA
:1000A40008115628031308150317AB185C2803130B
:1000B40088105E280313881403172B18642803136D
:1000C400081066280313081483166B186C2883120F
:1000D40008166E28831208128816032088128316C5
:0C00E4006B1C76280D20772806200800F1
:1000F0000E3083120313FD00FD0B7C280000080066
:10010000831603136B10831203172A08AB001A20FF
:0601100083166B140800C9
:0E011600831603136D088A006C08820008002F
:10012400831203139F01C0309F0483161F179F1768
:10013400831203172608F000F00D7010F00D7010F4
:10014400F00D7010700803139F041F1478201F15FE
:100154001F1DAE280000AA281F101E08F100F00180
:0C01640083161E08F0040030F1040800AF
:1001700083120313FB01FA01F9018030F800F10C3E
:10018000F00C031CCC287408F90775080318750FC8
:10019000FA070318FB0A0310F01FD4287408FA07A3
:1001A00075080318750FFB07FB0CFA0CF90CF80C1B
:1001B000031CBF287B08F3007A08F2007908F100DD
:0601C0007808F0000800C1
:1001C60083120313F801F9011030FC00710DF80DCC
:1001D600F90D7408F8027508031C750FF902031867
:1001E600FB287408F80775080318750FF90703103C
:0A01F600F00DF10DFC0BE9280800E4
:100200008B208A110A128000840AEC0A0319ED0A75
:08021000F003031D00290800A2
:100218008316031388120812081088100811881111
:1002280083128812081288110811881008100D20EE
:100238000D200D20881408148816032088120D201C
:100248008816032088120D208816032088120D2096
:1002580008108816032088120D208816032088129B
:10026800881088158816032088120D208811081414
:1002780088160320881208108816032088120D207B
:1002880088160320881208148816032088120D2067
:100298000810881603208812881508158814081471
:0E02A8008816032088120D2083166B140800A0
:1002B6006D29803083120317A6008029C030A6005E
:1002C60080299430A6008029D430A6008029803069
:1002D600A6008029831203172608013A03195C2910
:1002E6002608023A031961292608033A03196429E4
:1002F6002608043A031967296A292703F000260805
:10030600F0077008A6007008AB001A2083166B1061
:1003160083120317A9012908280784000008031976
:100326009E292908280784000008AA008020831235
:0E0336000317A90A8E29831603136B140800FF
:100344000824831603130812881208108810081151
:100354008811071087110711071387108712871256
:1003640083128711071107138710071007128712CA
:100374000C21013083120317AB001A200C30031731
:10038400AB001A2087140630FB001330FC00AD309C
:10039400FD00FD0BCB29FC0BCB29FB0BCB2900006B
:1003A400000087100630FB001330FC00AD30FD0068
:1003B400FD0BDA29FC0BDA29FB0BDA29000000001B
:1003C40001300317A6000130A7002030A8005B21EC
:1003D400023083120317A6000130A700B030A80032
:1003E4005B210630FB001330FC00AD30FD00FD0B3B
:1003F400F929FC0BF929FB0BF929000000008312F1
:100404000317A60192206430F4000030F500B820F0
:10041400FF30F4000330F500E32070088316EE008B
:100424007108EF00013083120317AB001A2001306A
:100434000317A6000130A700BB30A8005B216F089A
:10044400003C031D272A6E08193C031C442A023071
:1004540083120317A6000130A7005930A8005B21BE
:10046400831287150630FB001330FC00AD30FD000D
:10047400FD0B3A2AFC0B3A2AFB0B3A2A0000000037
:100484008711872A003083166F02031D4B2A2D30F3
:100494006E02031C722A6F08003C031D532A6E0867
:1004A400373C031C722A023083120317A600013062
:1004B400A700A030A8005B21831207150717063098
:1004C400FB001330FC00AD30FD00FD0B672AFC0B74
:1004D400672AFB0B672A0000000007110713872A0D
:1004E400831202300317A6000130A700C330A8000E
:1004F4005B210330FB000830FC007730FD00FD0B6E
:10050400812AFC0B812AFB0B812A8312051EAD2A4A
:10051400003083166A06031D912A00306906031D04
:10052400AD2A013083120317A6000130A700D3308F
:10053400A8005B210130E9000030EA000330FB0031
:100544000830FC007730FD00FD0BA62AFC0BA62A20
:10055400FB0BA62AD52A8312051ED52A0030831642
:100564006A06031DB72A01306906031DD52A013026
:1005740083120317A6000130A7001030A8005B21E6
:100584000230E9000030EA008312B801B9010330F7
:10059400FB000830FC007730FD00FD0BCF2AFC0B7C
:1005A400CF2AFB0BCF2A8312061CF02A3808390401
:1005B4000319E42A01300317A6000130A7002A30EA
:1005C400A8005B210330FB000830FC007730FD00FD
:1005D400FD0BEA2AFC0BEA2AFB0BEA2A8312061E0D
:1005E4001D2B3808390403191D2B01300317A600ED
:1005F4000130A7003A30A8005B21831207160330AC
:10060400FB000830FC007730FD00FD0B072BFC0BD2
:10061400072BFB0B072B07140630FB001330FC00E1
:10062400AD30FD00FD0B142BFC0B142BFB0B142B1A
:10063400000000000710861E422B0130B800003075
:10064400B90001300317A6000130A7004F30A800FD
:100654005B21023083120317A6000130A70041304A
:10066400A8005B210330FB000830FC007730FD005C
:10067400FD0B3A2BFC0B3A2BFB0B3A2B8312871600
:100684000630FB001330FC00AD30FD00FD0B482BA1
:10069400FC0B482BFB0B482B00000000012A512BBC
:1008100020308400503083120313F00057308316C9
:10082000EC000330ED000021A03084004930F000DE
:10083000A7308316EC000330ED0000211030831741
:1008400084001630F000F0308316EC000330ED0029
:1008500000218313E93084000230F0000630831653
:0A086000EC000430ED000021080058
:1006AE004234493445344E34563445344E34553440
:0406BE00453400348B
:1006C20042346F3472346E346534203458342034FA
:0C06D20064346934733470346F340034C5
:0406DE0001340034AF
:0E06E20045346E347434723465347A34003426
:1006F00042346F3472346E34653420346C3469346F
:0C070000623465347234653465340034B2
:10070C004134753420347234653476346F34693442
:04071C0072340034FF
:1007200045346E34203463346F347534723473342A
:100730002034643465342034633468346134723472
:0E074000673465346D3465346E3474340034BF
:10074E0056346F34693474347534723465342034ED
:10075E00633468346134723467346534653400341C
:10076E004134553420344B3449344F34533451349E
:06077E005534453400343F
:10078400443465346234693474343A342034003483
:1007940044346534623469347434203469346E34D6
:1007A40063346F34723472346534633474340034B3
:1007B40043346F346E346634693472346D34653462
:1007C400723420347234653473346534723476345C
:0C07D4006134743469346F346E340034C6
:1007E000523465347334653472347634613474341D
:1007F00069346F346E34203463346F346E3466344D
:0C080000693472346D34653465340034A2
:04080C000034003480
:02400E007A3BFB
:00000001FF
